:020000040800F2
:10000000008001207D030008CD030008CD03000817
:10001000CD030008CD030008CD0300080000000058
:10002000000000000000000000000000CD030008F8
:10003000CD03000800000000CD030008CD03000838
:1000400000000000CD030008CD030008CD03000828
:10005000CD030008CD030008CD030008CD03000840
:10006000CD030008CD030008CD0300080000000008
:100070000000000000000000000000000000000080
:100080000000000000000000CD0300080000000098
:10009000000000000000000000000000CD03000888
:1000A000CD030008CD030008CD030008CD030008F0
:1000B000CD030008CD03000800000000CD030008B8
:1000C000CD030008CD030008CD030008CD030008D0
:1000D000CD03000800000000000000000000000048
:1000E000CD030008CD030008CD0300080000000088
:1000F0000000000000000000000000000000000000
:1001000000000000CD03000800000000CD0300083F
:1001100000000000000000000000000000000000DF
:1001200000000000000000000000000000000000CF
:1001300000000000000000000000000000000000BF
:10014000000000000000000000000000CD030008D7
:10015000000000000000000000000000000000009F
:10016000CD030008CD0300080000000000000000DF
:10017000000000000000000000000000000000007F
:1001800000000000CD030008000000000000000097
:04019000CD03000893
:1001940010B5054C237833B9044B13B10448AFF3BD
:1001A40000800123237010BD14080020000000000B
:1001B400700E000808B5034B1BB103490348AFF3A5
:1001C400008008BD0000000018080020700E000820
:1001D400034613F8012B002AFBD1181A0138704783
:1001E40080B500AF0D4B0E4A1A600C4B4FF41652FB
:1001F4009A600A4B0022DA73084B00221A71074BEB
:1002040000221A73054B00225A73044B00229A737E
:10021400024800F0DFFC00BF80BD00BF5008002092
:100224000010014080B584B000AF0E4B7B60022308
:100234007B7200233B730023FB720223BB720723F0
:100244007B7309233B723B1D184600F05FF90A23B8
:100254003B723B1D184600F059F900BF1037BD46EC
:1002640080BD00BF0000024080B584B000AF094BE0
:100274007B6004233B7200237B720223BB72002346
:10028400FB723B1D184600F041F900BF1037BD4614
:1002940080BD00BF0008024080B483B000AF0023DB
:1002A4007B6002E07B6801337B607B68044A934295
:1002B400F8D900BF0C37BD465DF8047B704700BF1A
:1002C4008FD0030080B582B000AFFFF7CDFFFFF7FA
:1002D400A9FFFFF785FF0121204800F07FFB00BF45
:1002E40004211F4800F0B4FA0346002BF8D1FFF7AD
:1002F400D3FF1C48FFF76CFF03461A4619491A48F6
:1003040000F0EBFC0023FB7101221849164800F0B1
:1003140031FDFB79154A1178154AD154FB79013323
:10032400FB71124B1B780D2BEED1FB790133104A74
:100334000021D1540F48FFF74BFF03461A460D49DD
:10034400094800F0CAFC0A48FFF742FF03461A4670
:100354000749054800F0C1FCC1E700BF0010014097
:10036400000802400000002050080020300800204F
:1003740074080020000400200D4885460D480E49ED
:100384000E4A002302E0D458C4500433C4188C42EB
:10039400F9D30B4A0B4C002301E013600432A24250
:1003A400FBD3AFF3008000F03DFDFFF78BFFFEE7CA
:1003B400008001200000002014080020900E000896
:1003C4001408002094080020FEE7000080B483B0E5
:1003D40000AF78600B46FB70FB78012B41D17B6842
:1003E400434A934206D1434B1B6B424A43F00103F9
:1003F400136377E07B68404A934206D13D4B1B6B05
:100404003C4A43F0020313636CE07B683B4A93422B
:1004140006D1384B1B6B374A43F00403136361E086
:100424007B68374A934206D1324B1B6B314A43F007
:100434000803136356E07B68324A934206D12D4B7E
:100444001B6B2C4A43F0100313634BE07B682E4A6A
:10045400934247D1274B1B6B264A43F08003136317
:1004640040E07B68224A934206D1224B1B6B214A0F
:1004740023F00103136335E07B681F4A934206D1DE
:100484001C4B1B6B1B4A23F0020313632AE07B689B
:100494001A4A934206D1174B1B6B164A23F00403E6
:1004A40013631FE07B68164A934206D1114B1B6B02
:1004B400104A23F00803136314E07B68114A934243
:1004C40006D10C4B1B6B0B4A23F01003136309E09A
:1004D4007B680D4A934205D1064B1B6B054A23F0FA
:1004E4008003136300BF0C37BD465DF8047B70477F
:1004F40000000240003802400004024000080240AC
:10050400000C024000100240001C024080B586B07E
:1005140000AF786000237B617B681B68012118466B
:10052400FFF754FF7B685B79032B22D87B685B79E8
:100534001A467B681B795B0002FA03F37B617B68D4
:100544001B681A687B681B795B00032101FA03F3BB
:10055400DB4319467B681B680A401A607B681B688A
:1005640019687B681B687A690A431A6000237B61F7
:10057400CAE07B685B79042B17D1434BDB687A684C
:100584001279114601228A4011463F4A0B43D36037
:100594003D4B9B687A681279114601228A40D24306
:1005A4001146394A0B40936035E07B685B79052B33
:1005B40017D1354B9B687A681279114601228A401B
:1005C4001146314A0B4393602F4BDB687A681279EA
:1005D400114601228A40D24311462B4A0B40D36074
:1005E40019E07B685B79062B15D1274B9B687A68E9
:1005F4001279114601228A401146234A0B43936023
:10060400214BDB687A681279114601228A4011462F
:100614001D4A0B43D3601D4B5B6C1C4A43F480435F
:1006240053647B681B799B08FB747B681B7903F01C
:100634000303BB747B681B68154A934234D07B6800
:100644001B68144A93421DD07B681B68124A93426C
:1006540016D07B681B68114A93420FD07B681B68D5
:100664000F4A934208D07B681B680E4A934201D11B
:1006740007231AE0002318E0042316E0032314E000
:10068400022312E0012310E0003C01400038024044
:10069400000002400004024000080240000C024036
:1006A40000100240001C024000237B74664AFB7C5D
:1006B400023352F82320BB7C9B000F2101FA03F381
:1006C400DB4318466049FB7C0240023341F8232097
:1006D4005D4AFB7C023352F82320797CBB7C9B006F
:1006E40001FA03F318465849FB7C0243023341F8EC
:1006F4002320564B1B687A681279114601228A40DE
:100704001146524A0B43136000237B617B689B793B
:100714001A467B681B795B0002FA03F37B617B68F2
:100724001B689A687B681B795B00032101FA03F359
:10073400DB4319467B681B680A409A607B681B6828
:1007440099687B681B687A690A439A6000237B6115
:100754007B68DB791A467B681B795B0002FA03F33A
:100764007B617B681B68DA687B681B795B0003210B
:1007740001FA03F3DB4319467B681B680A40DA601D
:100784007B681B68D9687B681B687A690A43DA60EE
:1007940000237B617B681B7A1A467B681B7902FA0B
:1007A40003F37B617B681B685A687B681B79194675
:1007B40001238B40DB4319467B681B680A405A605F
:1007C4007B681B6859687B681B687A690A435A60AE
:1007D40000237B617B685B79022B31D17B681B79B9
:1007E400DB083B747B681B7903F00703FB737B68AE
:1007F4001B683A7C083253F82210FB7B9B000F22C3
:1008040002FA03F3DB4318467B681B683A7C014019
:10081400083243F822107B681B683A7C083253F88C
:1008240022107B685B7A1A46FB7B9B0002FA03F377
:1008340018467B681B683A7C0143083243F822104F
:1008440000BF1837BD4680BD00380140003C014060
:1008540080B485B000AF78600B46FB707B681A6982
:10086400FB7822FA03F3DBB203F00103FB73FB7B97
:1008740018461437BD465DF8047B704780B584B0D4
:1008840000AF254B9B689B08DBB203F003037B722C
:100894007B7A002B02D1214BFB600BE07B7A012B8E
:1008A40002D11F4BFB6005E07B7A022B02D100F0E2
:1008B4008DF8F860184B9B681B09DBB203F00F033B
:1008C4003B723B7A072B02D80123FB7205E03B7A8B
:1008D400083B144A32F81330FB720F4B9B689B0A97
:1008E400DBB203F007033B723B7A032B02D80123EC
:1008F400BB7204E03B7A043B0B4AD35CBB72FB7AC9
:10090400FA68B2FBF3F2BB7AB2FBF3F37B607B6869
:1009140018461037BD4680BD003802400024F4005C
:1009240000127A00000800201008002080B485B06E
:1009340000AF0023FB60204B9B689B08DBB203F0F5
:1009440003037B727B7A002B02D11C4BFB6001E01A
:100954001B4BFB60184B9B681B0903F00F037B6068
:100964007B68072B02D80123FB7205E07B68083BF8
:10097400144A32F81330FB720F4B9B685B0B03F085
:1009840007037B607B68032B02D80123BB7204E05E
:100994007B68043B0C4AD35CBB72FB7AFA68B2FBFB
:1009A400F3F2BB7AB2FBF3F33B603B6818461437AF
:1009B400BD465DF8047B7047003802400024F40013
:1009C40000127A00000800201008002080B400AF54
:1009D40000231846BD465DF8047B704780B483B09D
:1009E40000AF78600B46FB70FB78012B06D17B6867
:1009F400DB6843F400527B68DA6005E07B68DB68FF
:100A040023F400527B68DA6000BF0C37BD465DF802
:100A1400047B704780B483B000AF78600B46FB70F2
:100A2400FB78012B20D17B68224A934206D1224BCA
:100A34005B6C214A43F01003536435E07B681F4A22
:100A4400934206D11C4B1B6C1B4A43F400331364C2
:100A54002AE07B681A4A934226D1174B5B6C164AEC
:100A640043F0200353641FE07B68124A934206D18B
:100A7400114B5B6C104A23F01003536414E07B6841
:100A84000E4A934206D10C4B1B6C0B4A23F40033E1
:100A9400136409E07B680A4A934205D1064B5B6CF8
:100AA400054A23F02003536400BF0C37BD465DF8AC
:100AB400047B7047001001400038024000440040AD
:100AC4000014014080B483B000AF78600B46FB7023
:100AD4007B681A68FB781340002B01D0012300E0E7
:100AE400002318460C37BD465DF8047B70470000B0
:100AF40080B588B000AF7860396000233B617B68C3
:100B0400314A934203D07B68304A934203D1FFF7C2
:100B14000DFFF86102E0FFF7B1FEF8617B68DB6866
:100B240003F40043002B0BD0FA6913469B001344D3
:100B34009A001A443B685B00B2FBF3F3BB610AE022
:100B4400FA6913469B0013449A001A443B689B00BD
:100B5400B2FBF3F3BB61BB691D4AA2FB03235B0930
:100B6400FB60FB681B013A6913433B61FB68642229
:100B740002FB03F3BA69D31A7B617B68DB6803F475
:100B84000043002B0AD07B69DB003233104AA2FBFE
:100B940003235B0903F007037B6109E07B691B0105
:100BA40032330B4AA2FB03235B0903F00F037B617F
:100BB4003A697B6913433B617B683A699A6000BF79
:100BC4002037BD4680BD00BF001001400014014025
:100BD4001F85EB5180B584B000AF78600023FB60C3
:100BE4007B681B6801211846FFF714FF7B681B799B
:100BF400012B04D1FB6843F00403FB6010E07B6825
:100C04001B79002B04D1FB6843F00803FB6007E069
:100C14007B681B79022B03D1FB6843F00C03FB6058
:100C24007B685B7B1B031A46FB681343FB607B6892
:100C34009B7B012B04D1FB6843F48063FB600BE0D6
:100C44007B689B7B022B07D1FB6843F48063FB60CA
:100C5400FB6843F40073FB607B681B68FA68DA6026
:100C64000023FB607B681B7B1B031A46FB68134352
:100C7400FB607B681B68FA681A610023FB607B6871
:100C8400DB7B012B04D1FB6843F40073FB6014E0AD
:100C94007B68DB7B022B04D1FB6843F48073FB602D
:100CA4000BE07B68DB7B032B07D1FB6843F4007309
:100CB400FB60FB6843F48073FB607B681B68FA6825
:100CC4005A617B681A687B689B6819461046FFF76F
:100CD4000FFF00BF1037BD4680BD80B586B000AFA2
:100CE400F860B9607A6000237B6131E000BFFB6883
:100CF4001B6880211846FFF7E5FE0346002BF6D05B
:100D0400FB685B7B012B18D1BB683B613B691B888B
:100D14001A46FB681B68C2F308025A60FB689B7B97
:100D2400002B06D1BB680133BB60BB680133BB60D9
:100D34000BE0BB680133BB6007E0BB681A78FB6853
:100D44001B685A60BB680133BB607B6901337B61FC
:100D54007A697B689A42C9D300BFFB681B6840214B
:100D64001846FFF7AFFE0346002BF6D000BF183736
:100D7400BD4680BD80B586B000AFF860B9607A60CA
:100D840000237B6145E000BFFB681B6820211846F7
:100D9400FFF798FE0346002BF6D0FB685B7B012B24
:100DA4001DD1FB689B7B002B0FD1FB681B685B6824
:100DB4009BB2C3F308039AB2BB681A80BB680133C1
:100DC400BB60BB680133BB6020E0FB681B685B68E9
:100DD400DAB2BB681A70BB680133BB6016E0FB680B
:100DE4009B7B002B06D1FB681B685B68DAB2BB688F
:100DF4001A7008E0FB681B685B68DBB203F07F03D2
:100E0400DAB2BB681A70BB680133BB607B6901331B
:100E14007B617A697B689A42B5D300BF1837BD46B7
:100E240080BD000070B50D4E0D4CA41BA410002510
:100E3400A54209D10B4E0C4C00F018F8A41BA410C9
:100E44000025A54205D170BD56F8253098470135D7
:100E5400EEE756F8253098470135F2E7880E00088A
:100E6400880E0008880E00088C0E0008F8B500BF34
:100E7400F8BC08BC9E467047F8B500BFF8BC08BC77
:040E84009E467047CF
:040E8800B9010008A4
:040E8C0095010008C4
:100E9000554152542054782074657374696E672EDE
:100EA0002E2E0A0D000000000000000000000000CF
:100EB0000000000000000000000000000000000032
:100EC0000000000000000000000000000000000022
:100ED0000000000000000000000000000000000012
:100EE0000000000000000000000000000000000002
:10129000546865206D65737361676520656E64656C
:1012A0006421200A0D000000000000000000000082
:1012B000000000000000000000000000000000002E
:1012C000000000000000000000000000000000001E
:1012D000000000000000000000000000000000000E
:1012E00000000000000000000000000000000000FE
:101690000200040008001000400080000001000269
:0416A0000204081028
:040000050800037D6F
:00000001FF
