:020000040800F2
:1000000000800120490300089903000899030008B3
:1000100099030008990300089903000800000000F4
:10002000000000000000000000000000990300082C
:1000300099030008000000009903000899030008D4
:1000400000000000990300089903000899030008C4
:100050009903000899030008990300089903000810
:1000600099030008990300089903000800000000A4
:100070000000000000000000000000000000000080
:1000800000000000000000009903000800000000CC
:1000900000000000000000000000000099030008BC
:1000A00099030008990300089903000899030008C0
:1000B0009903000899030008000000009903000854
:1000C00099030008990300089903000899030008A0
:1000D000990300080000000000000000000000007C
:1000E0009903000899030008990300080000000024
:1000F0000000000000000000000000000000000000
:1001000000000000990300080000000099030008A7
:1001100000000000000000000000000000000000DF
:1001200000000000000000000000000000000000CF
:1001300000000000000000000000000000000000BF
:10014000000000000000000000000000990300080B
:10015000000000000000000000000000000000009F
:100160009903000899030008000000000000000047
:10017000000000000000000000000000000000007F
:1001800000000000990300080000000000000000CB
:0401900099030008C7
:1001940010B5054C237833B9044B13B10448AFF3BD
:1001A40000800123237010BD18000020000000000F
:1001B400B00E000808B5034B1BB103490348AFF365
:1001C400008008BD000000001C000020B00E0008E4
:1001D40080B483B000AF00237B6002E07B6801330E
:1001E4007B607B68044A9342F8D900BF0C37BD4654
:1001F4005DF8047B704700BF8FD0030080B584B0E6
:1002040000AF0E4B7B6002237B7201233B730123FF
:10021400FB7204237B730223BB7206233B723B1DD8
:10022400184600F059F907233B723B1D184600F0AD
:1002340053F900BF1037BD4680BD00BF0004024023
:1002440080B500AF094B0A4A1A60084B01225A7262
:10025400064B61221A72054B00229A72034B054A1F
:100264005A60024800F0D4FB00BF80BD3400002077
:1002740000540040A086010080B584B000AF094B53
:100284007B6004233B7200237B720223BB72002336
:10029400FB723B1D184600F01FF900BF1037BD4626
:1002A40080BD00BF0008024080B584B002AFFFF7F4
:1002B400E3FFFFF7A3FFFFF7C3FF01211D4800F091
:1002C4008BFB01211B4800F013FB00BF04211A48DB
:1002D40000F0A4FA0346002BF8D1FFF779FF51236D
:1002E400FB71F91D0123009368230122134800F0D8
:1002F40065FCB91D01230093682301220F4800F017
:10030400C0FC5223FB71F91D0123009368230122D1
:100314000A4800F053FCBA79002300936823084983
:10032400064800F0AEFCBB790133054A0021D154E4
:10033400CBE700BF00540040000802403400002016
:100344005C0000200D4885460D480E490E4A0023E6
:1003540002E0D458C4500433C4188C42F9D30B4A75
:100364000B4C002301E013600432A242FBD3AFF331
:10037400008000F077FDFFF797FFFEE70080012083
:100384000000002018000020D00E000818000020F3
:100394007C000020FEE7000080B483B000AF7860EA
:1003A4000B46FB70FB78012B41D17B68434A934297
:1003B40006D1434B1B6B424A43F00103136377E0BE
:1003C4007B68404A934206D13D4B1B6B3C4A43F049
:1003D400020313636CE07B683B4A934206D1384BBB
:1003E4001B6B374A43F00403136361E07B68374AAD
:1003F400934206D1324B1B6B314A43F0080313631B
:1004040056E07B68324A934206D12D4B1B6B2C4A33
:1004140043F0100313634BE07B682E4A934247D1A9
:10042400274B1B6B264A43F08003136340E07B6831
:10043400224A934206D1224B1B6B214A23F001032B
:10044400136335E07B681F4A934206D11C4B1B6B38
:100454001B4A23F0020313632AE07B681A4A93427F
:1004640006D1174B1B6B164A23F0040313631FE0DA
:100474007B68164A934206D1114B1B6B104A23F03A
:100484000803136314E07B68114A934206D10C4BB2
:100494001B6B0B4A23F01003136309E07B680D4ABE
:1004A400934205D1064B1B6B054A23F0800313636B
:1004B40000BF0C37BD465DF8047B70470000024066
:1004C400003802400004024000080240000C0240D0
:1004D40000100240001C024080B586B000AF786076
:1004E40000237B617B681B6801211846FFF754FFDA
:1004F4007B685B79032B22D87B685B791A467B681F
:100504001B795B0002FA03F37B617B681B681A6842
:100514007B681B795B00032101FA03F3DB43194673
:100524007B681B680A401A607B681B6819687B68D3
:100534001B687A690A431A6000237B61CAE07B68FE
:100544005B79042B17D1434BDB687A681279114627
:1005540001228A4011463F4A0B43D3603D4B9B68BE
:100564007A681279114601228A40D2431146394AE7
:100574000B40936035E07B685B79052B17D1354BD5
:100584009B687A681279114601228A401146314AE1
:100594000B4393602F4BDB687A6812791146012272
:1005A4008A40D24311462B4A0B40D36019E07B6842
:1005B4005B79062B15D1274B9B687A681279114613
:1005C40001228A401146234A0B439360214BDB6886
:1005D4007A681279114601228A4011461D4A0B435A
:1005E400D3601D4B5B6C1C4A43F4804353647B68AB
:1005F4001B799B08FB747B681B7903F00303BB74B2
:100604007B681B68154A934234D07B681B68144A84
:1006140093421DD07B681B68124A934216D07B68B4
:100624001B68114A93420FD07B681B680F4A9342A0
:1006340008D07B681B680E4A934201D107231AE055
:10064400002318E0042316E0032314E0022312E03D
:10065400012310E0003C0140003802400000024049
:100664000004024000080240000C02400010024056
:10067400001C024000237B74664AFB7C023352F860
:100684002320BB7C9B000F2101FA03F3DB431846B4
:100694006049FB7C0240023341F823205D4AFB7C25
:1006A400023352F82320797CBB7C9B0001FA03F3CC
:1006B40018465849FB7C0243023341F82320564B29
:1006C4001B687A681279114601228A401146524AFF
:1006D4000B43136000237B617B689B791A467B681C
:1006E4001B795B0002FA03F37B617B681B689A68E1
:1006F4007B681B795B00032101FA03F3DB43194692
:100704007B681B680A409A607B681B6899687B68F1
:100714001B687A690A439A6000237B617B68DB79F2
:100724001A467B681B795B0002FA03F37B617B68E2
:100734001B68DA687B681B795B00032101FA03F309
:10074400DB4319467B681B680A40DA607B681B68D8
:10075400D9687B681B687A690A43DA6000237B6185
:100764007B681B7A1A467B681B7902FA03F37B6168
:100774007B681B685A687B681B79194601238B4088
:10078400DB4319467B681B680A405A607B681B6818
:1007940059687B681B687A690A435A6000237B6145
:1007A4007B685B79022B31D17B681B79DB083B7456
:1007B4007B681B7903F00703FB737B681B683A7C37
:1007C400083253F82210FB7B9B000F2202FA03F33A
:1007D400DB4318467B681B683A7C0140083243F8C7
:1007E40022107B681B683A7C083253F822107B681D
:1007F4005B7A1A46FB7B9B0002FA03F318467B687C
:100804001B683A7C0143083243F8221000BF1837B2
:10081400BD4680BD00380140003C014080B485B035
:1008240000AF78600B46FB707B681A69FB7822FA8C
:1008340003F3DBB203F00103FB73FB7B18461437AD
:10084400BD465DF8047B704780B485B000AF234B90
:100854009B689B08DBB203F003037B727B7A002B5B
:1008640002D11F4BFB6004E07B7A012B01D11D4BAD
:10087400FB601A4B9B681B09DBB203F00F033B724E
:100884003B7A072B02D80123FB7205E03B7A083B35
:10089400154A32F81330FB72104B9B689B0ADBB28B
:1008A40003F007033B723B7A032B02D80123BB728C
:1008B40005E03B7A043B0D4A32F81330BB72FB7AF5
:1008C400FA68B2FBF3F2BB7AB2FBF3F37B607B68AA
:1008D40018461437BD465DF8047B70470038024063
:1008E4000024F40000127A00000000201000002010
:1008F40080B483B000AF78600B46FB70FB78012BAB
:1009040006D17B681B6843F480627B681A6005E04B
:100914007B681B6823F480627B681A6000BF0C3715
:10092400BD465DF8047B704780B483B000AF786047
:100934000B46FB70FB78012B20D17B68224A934243
:1009440006D1224B1B6C214A43F40013136435E097
:100954007B681F4A934206D11C4B1B6C1B4A43F411
:10096400800313642AE07B681A4A934226D1174B0A
:100974001B6C164A43F4000313641FE07B68124A9D
:10098400934206D1114B1B6C104A23F400131364D9
:1009940014E07B680E4A934206D10C4B1B6C0B4A45
:1009A40023F48003136409E07B680A4A934205D167
:1009B400064B1B6C054A23F40003136400BF0C3779
:1009C400BD465DF8047B7047005400400038024087
:1009D40000580040005C004080B483B000AF7860F1
:1009E4000B46FB70FB78012B06D17B681B6843F038
:1009F40001027B681A6005E07B681B6823F0010232
:100A04007B681A6000BF0C37BD465DF8047B7047F5
:100A140080B584B000AF78600023FB607B681B68FE
:100A240001211846FFF780FF7B685B7A9B021A4618
:100A3400FB681343FB607B681B6819687B681B6851
:100A4400FA680A431A600023FB60FFF7FDFE0246C2
:100A54004D4BA3FB02239B0CFA681343FB607B689A
:100A64001B685968FB6803F03F027B681B680A43F4
:100A74005A600023FB607B681B7A5B001A46FB68A4
:100A84001343FB60FB6843F48043FB607B681B6893
:100A940099687B681B68FA680A439A6000237B8123
:100AA4000023FB607B685B68384A93420FD8FFF7EA
:100AB400CBFE02467B685B685B00B2FBF3F37B8191
:100AC4007B89C3F30B03FA681343FB602DE0FB68D7
:100AD40043F40043FB607B689B7A9B031A46FB68E4
:100AE4001343FB607B689B7A002B0BD1FFF7ACFEB2
:100AF40001467B685A6813465B001344B1FBF3F369
:100B04007B810CE0FFF7A0FE01467B685A68134620
:100B14009B0013449A001344B1FBF3F37B817B895C
:100B2400C3F30B03FA681343FB607B681B68D96942
:100B34007B681B68FA680A43DA617B685B68134A5E
:100B4400934209D8FFF780FE02460F4BA3FB022312
:100B54009B0C0133FB600DE0FFF776FE02464FF479
:100B6400967303FB02F35B0A094AA2FB0323DB0926
:100B74000133FB607B681B68FA6802F03F021A626B
:100B840000BF1037BD4680BD83DE1B43A086010035
:100B9400834B040080B483B000AF786039607B6815
:100BA4005A693B681340002B01D0012300E0002365
:100BB40018460C37BD465DF8047B704780B584B099
:100BC40000AFF860B9607A60FB70FB681B68184678
:100BD40000F0F9F800BFFB681B6801211846FFF715
:100BE400D9FF0346002BF6D0FB681B68FA78114640
:100BF400184600F0F8F800BFFB681B68022118468D
:100C0400FFF7C8FF0346002BF6D0F86800F017F989
:100C140014E000BFFB681B6880211846FFF7BAFF89
:100C24000346002BF6D0BB681A78FB681B681A6170
:100C3400BB680133BB607B68013B7B607B68002B36
:100C4400E7D100BFFB681B6880211846FFF7A2FFAD
:100C54000346002BF6D000BFFB681B68042118462E
:100C6400FFF798FF0346002BF6D03B7E002B04D100
:100C7400FB681B68184600F096F800BF1037BD46A5
:100C840080BD80B586B000AFF860B96011461A46E1
:100C94000B46FB711346BB71FB681B68184600F0DA
:100CA40092F800BFFB681B6801211846FFF772FF2A
:100CB4000346002BF6D0FB681B68BA791146184628
:100CC40000F0A7F800BFFB681B6802211846FFF775
:100CD40061FF0346002BF6D0FB79012B21D1FB6881
:100CE4001B6800211846FFF703FEF86800F0A7F818
:100CF40000BFFB681B6840211846FFF74BFF034603
:100D0400002BF6D097F82030002B04D1FB681B6829
:100D1400184600F048F8FB681B681B69DAB2BB6828
:100D24001A70FB79012B30D9F86800F088F8FB7948
:100D34007B6127E000BFFB681B6840211846FFF772
:100D440029FF0346002BF6D07B69022B0ED1FB68EA
:100D54001B6800211846FFF7CBFD97F82030002BC5
:100D640004D1FB681B68184600F01DF8FB681B687B
:100D74001B69DAB2BB681A70BB680133BB607B695C
:100D8400013B7B617B69002BD4D1FB685B7A012B2F
:100D940005D1FB681B6801211846FFF7A9FD00BFB8
:100DA4001837BD4680BD80B483B000AF78607B68DF
:100DB4001B6843F400727B681A6000BF0C37BD46A1
:100DC4005DF8047B704780B483B000AF78607B68C3
:100DD4001B6843F480727B681A6000BF0C37BD4601
:100DE4005DF8047B704780B483B000AF78600B4635
:100DF400FB70FB785B00FB70FB7823F00103FB7056
:100E0400FA787B681A6100BF0C37BD465DF8047B35
:100E1400704780B483B000AF78600B46FB70FB78FA
:100E24005B00FB70FB7843F00103FB70FA787B688E
:100E34001A6100BF0C37BD465DF8047B704780B46F
:100E440085B000AF78607B681B685B69FB607B687A
:100E54001B689B69FB6000BF1437BD465DF8047BCB
:100E64007047000070B50D4E0D4CA41BA410002556
:100E7400A54209D10B4E0C4C00F018F8A41BA41089
:100E84000025A54205D170BD56F825309847013597
:100E9400EEE756F8253098470135F2E7C80E00080A
:100EA400C80E0008C80E0008CC0E0008F8B500BF34
:100EB400F8BC08BC9E467047F8B500BFF8BC08BC37
:040EC4009E4670478F
:040EC800B901000864
:040ECC009501000884
:100ED0000200040008001000400080000001000231
:080EE0000200040008001000EC
:0400000508000349A3
:00000001FF
