:020000040800F2
:1000000000800120CD0400081D0500081D05000822
:100010001D0500081D0500081D0500080000000062
:100020000000000000000000000000001D050008A6
:100030001D050008000000001D0500081D05000842
:10004000000000001D0500081D0500081D05000832
:100050001D0500081D0500081D0500081D050008F8
:100060001D0500081D0500081D0500080000000012
:100070000000000000000000000000000000000080
:1000800000000000000000001D0500080000000046
:100090000000000000000000000000001D05000836
:1000A0001D0500081D0500081D0500081D050008A8
:1000B0001D0500081D050008000000001D050008C2
:1000C0001D0500081D0500081D0500081D05000888
:1000D000D501000800000000000000000000000042
:1000E0001D0500081D0500081D0500080000000092
:1000F0000000000000000000000000000000000000
:10010000000000001D050008000000001D0500089B
:1001100000000000000000000000000000000000DF
:1001200000000000000000000000000000000000CF
:1001300000000000000000000000000000000000BF
:100140000000000000000000000000001D05000885
:10015000000000000000000000000000000000009F
:100160001D0500081D05000800000000000000003B
:10017000000000000000000000000000000000007F
:10018000000000001D050008000000000000000045
:040190001D05000841
:1001940010B5054C237833B9044B13B10448AFF3BD
:1001A40000800123237010BD040000200000000023
:1001B4001010000808B5034B1BB103490348AFF303
:1001C400008008BD00000000080000201010000896
:1001D40080B500AF024800F09FFD00BF80BD00BFA6
:1001E4002400002080B483B000AF78600B46FB701D
:1001F40000BF0C37BD465DF8047B704780B584B002
:1002040000AF164B7B6002237B7205237B730023B4
:100214003B730123FB720223BB7201210F4800F0E0
:100224007DF90D233B723B1D184600F017FA0F238E
:100234003B723B1D184600F011FA0E233B723B1D26
:10024400184600F00BFA0C233B723B1D184600F0D5
:1002540005FA00BF1037BD4680BD00BF0004024050
:1002640080B500AF104B114A1A600F4B01225A712E
:100274000D4B01221A710C4B02229A710A4B002277
:10028400DA71094B00221A72074B00225A72064B8C
:1002940000229A720121054800F094FB024800F004
:1002A40001FC00BF80BD00BF2400002000380040D6
:1002B40080B584B000AF0B4B7B600D233B720023F1
:1002C4007B720223BB720023FB720121054800F0FC
:1002D40025F93B1D184600F0C1F900BF1037BD4693
:1002E40080BD00BF0008024080B483B000AF00238B
:1002F4007B6002E07B6801337B607B68044A934245
:10030400F8D900BF0C37BD465DF8047B704700BFC9
:100314008FD0030080B483B000AF0346FB71FB7938
:10032400F52B01D1012300E0002318460C37BD460C
:100334005DF8047B7047000080B582B000AFFFF722
:10034400B7FFFFF75BFFFFF78BFF0121242000F0CD
:100354005DFC0121574800F048FD00BF0D215648BF
:1003640000F01AFB0346002BF8D1FFF7BDFF012173
:10037400504800F01EFD5023FB7100BFFB1D0122FD
:1003840019464E4800F0F9FB0346002BF6D100BF96
:1003940001224B49494800F014FC0346002BF7D1D5
:1003A40000BF01224749454800F0E7FB0346002B04
:1003B400F7D100BFBB1D01221946404800F001FCE3
:1003C4000346002BF6D1BB791846FFF7A3FF03467B
:1003D400002B0DD009233B7101237B7100BF3B1D12
:1003E40002221946354800F0C8FB0346002BF6D11B
:1003F4005123FB7100BFFB1D012219462F4800F059
:10040400BCFB0346002BF6D100BF01222C492B482C
:1004140000F0D7FB0346002BF7D100BF0122294986
:10042400264800F0AAFB0346002BF7D100BFBB1DF2
:1004340001221946214800F0C4FB0346002BF6D1E3
:10044400BB791846FFF766FF0346002B29D000232B
:100454003B7100BF3B1D01221946184800F08DFB7B
:100464000346002BF6D100BF01221549134800F0C2
:10047400A8FB0346002BF7D100BF012211490F4806
:1004840000F07BFB0346002BF7D1FFF72DFF00BFE5
:10049400FB1C01221946094800F093FB0346002B7C
:1004A400F6D10721034800F054FB0021014800F075
:1004B40080FC52E70038004000080240240000207D
:1004C40020000020000000200D4885460D480E49FC
:1004D4000E4A002302E0D458C4500433C4188C429A
:1004E400F9D30B4A0B4C002301E013600432A242FF
:1004F400FBD3AFF3008000F065FDFFF71DFFFEE7BF
:1005040000800120000000200400002030100008BA
:100514000400002044000020FEE7000080B483B003
:1005240000AF78600B46FB70FB78012B41D17B68F0
:10053400434A934206D1434B1B6B424A43F00103A7
:10054400136377E07B68404A934206D13D4B1B6BB3
:100554003C4A43F0020313636CE07B683B4A9342DA
:1005640006D1384B1B6B374A43F00403136361E035
:100574007B68374A934206D1324B1B6B314A43F0B6
:100584000803136356E07B68324A934206D12D4B2D
:100594001B6B2C4A43F0100313634BE07B682E4A19
:1005A400934247D1274B1B6B264A43F080031363C6
:1005B40040E07B68224A934206D1224B1B6B214ABE
:1005C40023F00103136335E07B681F4A934206D18D
:1005D4001C4B1B6B1B4A23F0020313632AE07B684A
:1005E4001A4A934206D1174B1B6B164A23F0040395
:1005F40013631FE07B68164A934206D1114B1B6BB1
:10060400104A23F00803136314E07B68114A9342F1
:1006140006D10C4B1B6B0B4A23F01003136309E048
:100624007B680D4A934205D1064B1B6B054A23F0A8
:100634008003136300BF0C37BD465DF8047B70472D
:10064400000002400038024000040240000802405A
:10065400000C024000100240001C024080B487B02D
:1006640000AF786000237B617B685B79032B22D821
:100674007B685B791A467B681B795B0002FA03F39B
:100684007B617B681B681A687B681B795B000321AC
:1006940001FA03F3DB4319467B681B680A401A60BE
:1006A4007B681B6819687B681B687A690A431A604F
:1006B40000237B61CAE07B685B79042B17D1434B31
:1006C400DB687A681279114601228A4011463F4A52
:1006D4000B43D3603D4B9B687A6812791146012223
:1006E4008A40D2431146394A0B40936035E07B6817
:1006F4005B79052B17D1354B9B687A6812791146C3
:1007040001228A401146314A0B4393602F4BDB6828
:100714007A681279114601228A40D24311462B4A43
:100724000B40D36019E07B685B79062B15D1274B0E
:100734009B687A681279114601228A401146234A3D
:100744000B439360214BDB687A68127911460122CE
:100754008A4011461D4A0B43D3601D4B5B6C1C4AF7
:1007640043F4804353647B681B799B08FB747B6868
:100774001B7903F00303BB747B681B68154A93421F
:1007840034D07B681B68144A93421DD07B681B6875
:10079400124A934216D07B681B68114A93420FD0C9
:1007A4007B681B680F4A934208D07B681B680E4A1B
:1007B400934201D107231AE0002318E0042316E032
:1007C400032314E0022312E0012310E0003C014063
:1007D40000380240000002400004024000080240C9
:1007E400000C024000100240001C024000237B74F5
:1007F400674AFB7C023352F82320BB7C9B000F2109
:1008040001FA03F3DB4318466149FB7C02400233DF
:1008140041F823205E4AFB7C023352F82320797C82
:10082400BB7C9B0001FA03F318465949FB7C024345
:10083400023341F82320574B1B687A68127911461A
:1008440001228A401146534A0B43136000237B6103
:100854007B689B791A467B681B795B0002FA03F379
:100864007B617B681B689A687B681B795B0003214A
:1008740001FA03F3DB4319467B681B680A409A605C
:100884007B681B6899687B681B687A690A439A606D
:1008940000237B617B68DB791A467B681B795B00EC
:1008A40002FA03F37B617B681B68DA687B681B7957
:1008B4005B00032101FA03F3DB4319467B681B68E1
:1008C4000A40DA607B681B68D9687B681B687A69B0
:1008D4000A43DA6000237B617B681B7A1A467B68D3
:1008E4001B7902FA03F37B617B681B685A687B6897
:1008F4001B79194601238B40DB4319467B681B682F
:100904000A405A607B681B6859687B681B687A696F
:100914000A435A6000237B617B685B79022B31D1E7
:100924007B681B79DB083B747B681B7903F0070346
:10093400FB737B681B683A7C083253F82210FB7BFC
:100944009B000F2202FA03F3DB4318467B681B6803
:100954003A7C0140083243F822107B681B683A7CD9
:10096400083253F822107B685B7A1A46FB7B9B00A3
:1009740002FA03F318467B681B683A7C0143083289
:1009840043F8221000BF1C37BD465DF8047B704756
:1009940000380140003C014080B485B000AF78606D
:1009A4000B46FB707B681A69FB7822FA03F3DBB20F
:1009B40003F00103FB73FB7B18461437BD465DF857
:1009C400047B704780B483B000AF78600B46FB7043
:1009D400FB78012B2BD17B682D4A934206D12D4BFA
:1009E4005B6C2C4A43F4805353644BE07B682A4A83
:1009F400934206D1274B1B6C264A43F4804313646D
:100A040040E07B68254A934206D1224B1B6C214A65
:100A140043F40043136435E07B68214A934231D1A7
:100A24001C4B5B6C1B4A43F4005353642AE07B6801
:100A3400174A934206D1174B5B6C164A23F4805332
:100A440053641FE07B68144A934206D1114B1B6C1C
:100A5400104A23F48043136414E07B680F4A9342E2
:100A640006D10C4B1B6C0B4A23F40043136409E0BE
:100A74007B680B4A934205D1064B5B6C054A23F411
:100A84000053536400BF0C37BD465DF8047B7047C8
:100A9400003001400038024000380040003C004073
:100AA4000034014080B485B000AF78600023FB605F
:100AB4007B681B799B001A46FB681343FB607B68C9
:100AC4005B79012B04D1FB6823F40043FB6014E041
:100AD4007B685B79022B04D1FB6843F40043FB6021
:100AE4000BE07B685B79032B07D1FB6823F400439D
:100AF400FB60FB6843F48063FB607B689B79DB00ED
:100B04001A46FB681343FB607B68DB79DB021A46F9
:100B1400FB681343FB607B681B7A5B001A46FB6827
:100B24001343FB607B685B7A1A46FB681343FB60E4
:100B34007B689B7A5B021A46FB681343FB607B6805
:100B44001B68FA681A6000BF1437BD465DF8047B61
:100B5400704780B483B000AF786039607B689A686E
:100B64003B681340002B01D0012300E0002318460A
:100B74000C37BD465DF8047B704780B487B000AF86
:100B8400F860B9607A60FB681B7FFB75FB7D022B04
:100B940010D0FB68BA68DA60FB687A685A61FB684F
:100BA40002221A77FB681B685A68FB681B6842F0CC
:100BB40080025A60FB7D18461C37BD465DF8047BF5
:100BC400704780B487B000AFF860B9607A60FB68A2
:100BD4005B7FFB75FB7D012B10D0FB68BA681A6143
:100BE400FB687A689A61FB6801225A77FB681B6884
:100BF4005A68FB681B6842F040025A60FB7D184645
:100C04001C37BD465DF8047B7047000080B483B098
:100C140000AF03460A46FB711346BB71BB79012B37
:100C240033D1FB791F2B0AD8354B1B68FA79012184
:100C340001FA02F21146324A0B43136059E0FB7980
:100C44001F2B0FD9FB793F2B0CD82E4B1B68FA793D
:100C540002F01F02012101FA02F21146294A0B4354
:100C6400136046E0FB793F2B43D9FB795F2B40D8D7
:100C7400254B1B68FA7902F03F02012101FA02F2C6
:100C84001146214A0B43136033E0FB791F2B0AD82A
:100C94001E4B1B68FA79012101FA02F211461B4A24
:100CA4000B43136025E0FB791F2B0FD9FB793F2BF6
:100CB4000CD8174B1B68FA7902F01F02012101FAC4
:100CC40002F21146124A0B43136012E0FB793F2BE8
:100CD4000FD9FB795F2B0CD80E4B1B68FA7902F005
:100CE4003F02012101FA02F211460A4A0B43136042
:100CF400FFE700BF0C37BD465DF8047B704700BFBB
:100D040000E100E004E100E008E100E080E100E04F
:100D140084E100E088E100E080B584B000AF786051
:100D24007B681B689B68DBB203F00203FB737B6880
:100D34001B685B68DBB223F07F03BB73FB7B002B78
:100D440005D0BB7B002B02D0786800F0A0F87B684C
:100D54001B689B68DBB203F00103FB737B681B68B1
:100D64005B68DBB203F04003BB73FB7B002B05D055
:100D7400BB7B002B02D0786800F0C9F87B681B6845
:100D84009B68DBB203F04003FB737B681B685B6802
:100D9400DBB203F02003BB73FB7B002B05D0BB7BD2
:100DA400002B02D0786800F0F4F800BF1037BD467D
:100DB40080BD80B483B000AF78600B46FB70FB78D5
:100DC400012B06D17B681B6843F040027B681A60E4
:100DD40005E07B681B6823F040027B681A6000BF53
:100DE4000C37BD465DF8047B704780B483B000AF18
:100DF40078600B46FB70FB78012B06D17B685B683F
:100E040043F004027B685A6005E07B685B6823F06A
:100E140004027B685A6000BF0C37BD465DF8047B52
:100E2400704780B483B000AF78607B681B685A68F1
:100E34007B681B6822F080025A607B680022DA60BB
:100E44007B6800225A617B6800221A7700BF0C3746
:100E5400BD465DF8047B704780B483B000AF786012
:100E64007B681B685A687B681B6822F040025A60E2
:100E74007B6800221A617B6800229A617B680022E9
:100E84005A7700BF0C37BD465DF8047B704780B5C8
:100E940082B000AF78607B681B681B6803F4006352
:100EA400002B15D07B68DB681A887B681B68DA60C6
:100EB4007B685B695A1E7B685A617B685B695A1E52
:100EC4007B685A617B68DB685A1C7B68DA600FE0D8
:100ED4007B68DB681A787B681B68DA607B685B690F
:100EE4005A1E7B685A617B68DB685A1C7B68DA602F
:100EF4007B685B69002B06D17868FFF792FF0121BC
:100F04007868FFF76FF900BF0837BD4680BD80B52C
:100F140082B000AF78607B681B681B6803F40063D1
:100F2400002B16D07B681B68DA687B681B6992B259
:100F34001A807B689B695A1E7B689A617B689B69EF
:100F44005A1E7B689A617B681B695A1C7B681A610C
:100F540010E07B681B68DA687B681B69D2B21A7080
:100F64007B689B695A1E7B689A617B681B695A1C63
:100F74007B681A617B689B69002B06D17868FFF750
:100F84006BFF02217868FFF72DF900BF0837BD46D3
:100F940080BD80B584B000AF78607B681B7F022B76
:100FA40007D07B681B68DB68FB737B681B689B68E6
:100FB400FB7303217868FFF715F900BF1037BD46AE
:100FC40080BD000070B50D4E0D4CA41BA41000256F
:100FD400A54209D10B4E0C4C00F018F8A41BA41028
:100FE4000025A54205D170BD56F825309847013536
:100FF400EEE756F8253098470135F2E72810000847
:1010040028100008281000082C100008F8B500BFAC
:10101400F8BC08BC9E467047F8B500BFF8BC08BCD5
:041024009E4670472D
:04102800B901000802
:04102C009501000822
:04103000FF000000BD
:04000005080004CD1E
:00000001FF
