:020000040800F2
:10000000008001208D020008DD020008DD020008EA
:10001000DD020008DD020008DD020008000000002B
:10002000000000000000000000000000DD020008E9
:10003000DD02000800000000DD020008DD0200080B
:1000400000000000DD020008DD020008DD020008FB
:10005000DD020008DD020008DD020008DD02000804
:10006000DD020008DD020008DD02000800000000DB
:100070000000000000000000000000000000000080
:100080000000000000000000DD0200080000000089
:10009000000000000000000000000000DD02000879
:1000A000DD020008DD020008DD020008DD020008B4
:1000B000DD020008DD02000800000000DD0200088B
:1000C000DD020008DD020008DD020008DD02000894
:1000D000DD02000800000000000000000000000039
:1000E000FD010008DD020008DD020008000000003C
:1000F0000000000000000000000000000000000000
:1001000000000000DD02000800000000DD02000821
:1001100000000000000000000000000000000000DF
:1001200000000000000000000000000000000000CF
:1001300000000000000000000000000000000000BF
:10014000000000000000000000000000DD020008C8
:10015000000000000000000000000000000000009F
:10016000DD020008DD0200080000000000000000C1
:10017000000000000000000000000000000000007F
:1001800000000000DD020008000000000000000088
:04019000DD02000884
:1001940010B5054C237833B9044B13B10448AFF3BD
:1001A40000800123237010BD000000200000000027
:1001B4007009000808B5034B1BB103490348AFF3AA
:1001C400008008BD00000000040000207009000841
:1001D40080B483B000AF00237B6002E07B6801330E
:1001E4007B607B6846F2A7129342F7D900BF0C37B5
:1001F400BD465DF8047B704780B500AFFFF7E8FFAC
:100204000C2000F06FFB0E21024800F0A5FA00BF9D
:1002140080BD00BF0000024080B586B000AF184B1F
:10022400FB600E233B7401237B740223BB74002305
:100234003B750023FB74134B3B600C233B7104237D
:100244007B710223BB710023FB7101210C4800F078
:1002540045F801210B4800F041F807F10C0318465A
:1002640000F0DCF83B46184600F0D8F80F212820AF
:1002740000F00EFB0121282000F084FAFEE700BF05
:1002840000000240000402400D4885460D480E4916
:100294000E4A002302E0D458C4500433C4188C42DC
:1002A400F9D30B4A0B4C002301E013600432A24241
:1002B400FBD3AFF3008000F035FBFFF7ADFFFEE7A3
:1002C40000800120000000200000002090090008A8
:1002D400000000201C000020FEE7000080B483B072
:1002E40000AF78600B46FB70FB78012B41D17B6833
:1002F400434A934206D1434B1B6B424A43F00103EA
:10030400136377E07B68404A934206D13D4B1B6BF5
:100314003C4A43F0020313636CE07B683B4A93421C
:1003240006D1384B1B6B374A43F00403136361E077
:100334007B68374A934206D1324B1B6B314A43F0F8
:100344000803136356E07B68324A934206D12D4B6F
:100354001B6B2C4A43F0100313634BE07B682E4A5B
:10036400934247D1274B1B6B264A43F08003136308
:1003740040E07B68224A934206D1224B1B6B214A00
:1003840023F00103136335E07B681F4A934206D1CF
:100394001C4B1B6B1B4A23F0020313632AE07B688C
:1003A4001A4A934206D1174B1B6B164A23F00403D7
:1003B40013631FE07B68164A934206D1114B1B6BF3
:1003C400104A23F00803136314E07B68114A934234
:1003D40006D10C4B1B6B0B4A23F01003136309E08B
:1003E4007B680D4A934205D1064B1B6B054A23F0EB
:1003F4008003136300BF0C37BD465DF8047B704770
:10040400000002400038024000040240000802409C
:10041400000C024000100240001C024080B487B06F
:1004240000AF786000237B617B685B79032B22D863
:100434007B685B791A467B681B795B0002FA03F3DD
:100444007B617B681B681A687B681B795B000321EE
:1004540001FA03F3DB4319467B681B680A401A6000
:100464007B681B6819687B681B687A690A431A6091
:1004740000237B61CAE07B685B79042B17D1434B73
:10048400DB687A681279114601228A4011463F4A94
:100494000B43D3603D4B9B687A6812791146012265
:1004A4008A40D2431146394A0B40936035E07B6859
:1004B4005B79052B17D1354B9B687A681279114605
:1004C40001228A401146314A0B4393602F4BDB686B
:1004D4007A681279114601228A40D24311462B4A86
:1004E4000B40D36019E07B685B79062B15D1274B51
:1004F4009B687A681279114601228A401146234A80
:100504000B439360214BDB687A6812791146012210
:100514008A4011461D4A0B43D3601D4B5B6C1C4A39
:1005240043F4804353647B681B799B08FB747B68AA
:100534001B7903F00303BB747B681B68154A934261
:1005440034D07B681B68144A93421DD07B681B68B7
:10055400124A934216D07B681B68114A93420FD00B
:100564007B681B680F4A934208D07B681B680E4A5D
:10057400934201D107231AE0002318E0042316E074
:10058400032314E0022312E0012310E0003C0140A5
:10059400003802400000024000040240000802400B
:1005A400000C024000100240001C024000237B7437
:1005B400674AFB7C023352F82320BB7C9B000F214B
:1005C40001FA03F3DB4318466149FB7C0240023322
:1005D40041F823205E4AFB7C023352F82320797CC5
:1005E400BB7C9B0001FA03F318465949FB7C024388
:1005F400023341F82320574B1B687A68127911465D
:1006040001228A401146534A0B43136000237B6145
:100614007B689B791A467B681B795B0002FA03F3BB
:100624007B617B681B689A687B681B795B0003218C
:1006340001FA03F3DB4319467B681B680A409A609E
:100644007B681B6899687B681B687A690A439A60AF
:1006540000237B617B68DB791A467B681B795B002E
:1006640002FA03F37B617B681B68DA687B681B7999
:100674005B00032101FA03F3DB4319467B681B6823
:100684000A40DA607B681B68D9687B681B687A69F2
:100694000A43DA6000237B617B681B7A1A467B6815
:1006A4001B7902FA03F37B617B681B685A687B68D9
:1006B4001B79194601238B40DB4319467B681B6871
:1006C4000A405A607B681B6859687B681B687A69B2
:1006D4000A435A6000237B617B685B79022B31D12A
:1006E4007B681B79DB083B747B681B7903F0070389
:1006F400FB737B681B683A7C083253F82210FB7B3F
:100704009B000F2202FA03F3DB4318467B681B6845
:100714003A7C0140083243F822107B681B683A7C1B
:10072400083253F822107B685B7A1A46FB7B9B00E5
:1007340002FA03F318467B681B683A7C01430832CB
:1007440043F8221000BF1C37BD465DF8047B704798
:1007540000380140003C014080B483B000AF7860B1
:100764000B46FB707B685B69FA78012101FA02F29F
:100774005A407B685A6100BF0C37BD465DF8047B64
:100784007047000080B483B000AF03460A46FB7193
:100794001346BB71BB79012B33D1FB791F2B0AD8CC
:1007A400354B1B68FA79012101FA02F21146324AEB
:1007B4000B43136059E0FB791F2B0FD9FB793F2BB7
:1007C4000CD82E4B1B68FA7902F01F02012101FAA2
:1007D40002F21146294A0B43136046E0FB793F2B92
:1007E40043D9FB795F2B40D8254B1B68FA7902F07B
:1007F4003F02012101FA02F21146214A0B43136020
:1008040033E0FB791F2B0AD81E4B1B68FA790121B0
:1008140001FA02F211461B4A0B43136025E0FB79EF
:100824001F2B0FD9FB793F2B0CD8174B1B68FA7978
:1008340002F01F02012101FA02F21146124A0B438F
:10084400136012E0FB793F2B0FD9FB795F2B0CD897
:100854000E4B1B68FA7902F03F02012101FA02F201
:1008640011460A4A0B431360FFE700BF0C37BD462D
:100874005DF8047B704700BF00E100E004E100E0A4
:1008840008E100E080E100E084E100E088E100E0CC
:1008940080B485B000AF03463960FB71FB799B08D7
:1008A400FB73FB7903F00303BB73BB7BDB00DBB29D
:1008B40004337B73FB7B1B0103F1604303F5644347
:1008C40019687B7B3A689A40FB7B1B0103F1604308
:1008D40003F564430A431A6000BF1437BD465DF84C
:1008E400047B704780B483B000AF0346FB710C4BAC
:1008F4005B69FA79012101FA02F21340002B09D055
:10090400074B5B69FA79012101FA02F21146044AA4
:100914000B43536100BF0C37BD465DF8047B704741
:10092400003C014070B50D4E0D4CA41BA4100025D5
:10093400A54209D10B4E0C4C00F018F8A41BA410CE
:100944000025A54205D170BD56F8253098470135DC
:10095400EEE756F8253098470135F2E78809000894
:1009640088090008880900088C090008F8B500BF48
:10097400F8BC08BC9E467047F8B500BFF8BC08BC7C
:040984009E467047D4
:04098800B9010008A9
:04098C0095010008C9
:040000050800028D60
:00000001FF
