:020000040800F2
:100000000080012091030008E1030008E1030008DB
:10001000E1030008E1030008E1030008000000001C
:10002000000000000000000000000000E1030008E4
:10003000E103000800000000E1030008E1030008FC
:1000400000000000E1030008E1030008E1030008EC
:10005000E1030008E1030008E1030008E1030008F0
:10006000E1030008E1030008E103000800000000CC
:100070000000000000000000000000000000000080
:100080000000000000000000E10300080000000084
:10009000000000000000000000000000E103000874
:1000A000E1030008E1030008E1030008E1030008A0
:1000B000E1030008E103000800000000D10200088D
:1000C000E5020008E1030008E1030008E10300087D
:1000D000E103000800000000000000000000000034
:1000E000E1030008E1030008E1030008000000004C
:1000F0000000000000000000000000000000000000
:1001000000000000E103000800000000E103000817
:1001100000000000000000000000000000000000DF
:1001200000000000000000000000000000000000CF
:1001300000000000000000000000000000000000BF
:10014000000000000000000000000000E1030008C3
:10015000000000000000000000000000000000009F
:10016000E1030008E10300080000000000000000B7
:10017000000000000000000000000000000000007F
:1001800000000000E1030008000000000000000083
:04019000E10300087F
:1001940010B5054C237833B9044B13B10448AFF3BD
:1001A40000800123237010BD3800002000000000EF
:1001B4003C13000808B5034B1BB103490348AFF3D4
:1001C400008008BD000000003C0000203C13000833
:1001D400034613F8012B002AFBD1181A0138704783
:1001E40080B584B000AF0E4B7B6002237B72012389
:1001F4003B730123FB7204237B730223BB7206232C
:100204003B723B1D184600F08BF907233B723B1DE4
:10021400184600F085F900BF1037BD4680BD00BF09
:100224000004024080B500AF094B0A4A1A60084B2B
:1002340001225A72064B69221A72054B00229A72E5
:10024400034B054A5A60024800F034FC00BF80BDED
:100254005800002000540040A086010080B584B0FE
:1002640000AF094B7B6004233B7200237B720223A3
:10027400BB720023FB723B1D184600F051F900BF0E
:100284001037BD4680BD00BF0008024080B500AFF6
:10029400FFF7E4FFFFF7A4FFFFF7C4FF01211F20CE
:1002A40000F0D2FE0121202000F0CEFE01210648FC
:1002B40000F02FFD0121044800F0E0FB0121024879
:1002C40000F03AFBFEE700BF0054004080B500AFE9
:1002D400024800F052FD00BF80BD00BF580000205E
:1002E40080B500AF024800F026FE00BF80BD00BF0D
:1002F4005800002090B583B000AF78600B46FB70C7
:10030400FB78082B22D11E4B1B78512B0BD17B6819
:100314001C681C48FFF75CFF0346DBB21946204605
:1003240000F0DBFC28E0164B1B78522B24D17B68B1
:100334001868154B1B785A1CD1B2134A11701A460F
:10034400104B9B5C194600F0C8FC15E0FB78092BA8
:1003540009D17B681B68184600F0CEFC03461A4698
:10036400074B1A7008E0FB78052B05D1044BFF22DC
:100374001A70054B00221A7000BF0C37BD4690BDA1
:100384005400002000000020550000200D48854640
:100394000D480E490E4A002302E0D458C4500433D9
:1003A400C4188C42F9D30B4A0B4C002301E01360B0
:1003B4000432A242FBD3AFF3008000F099FFFFF7B1
:1003C40065FFFEE7008001200000002038000020C7
:1003D4005C1300083800002080000020FEE70000C5
:1003E40080B483B000AF78600B46FB70FB78012BC0
:1003F40041D17B68434A934206D1434B1B6B424A2B
:1004040043F00103136377E07B68404A934206D1CB
:100414003D4B1B6B3C4A43F0020313636CE07B6867
:100424003B4A934206D1384B1B6B374A43F00403D3
:10043400136361E07B68374A934206D1324B1B6BEE
:10044400314A43F00803136356E07B68324A93420F
:1004540006D12D4B1B6B2C4A43F0100313634BE066
:100464007B682E4A934247D1274B1B6B264A43F0A5
:100474008003136340E07B68224A934206D1224BF7
:100484001B6B214A23F00103136335E07B681F4A89
:10049400934206D11C4B1B6B1B4A23F002031363CC
:1004A4002AE07B681A4A934206D1174B1B6B164A03
:1004B40023F0040313631FE07B68164A934206D1BA
:1004C400114B1B6B104A23F00803136314E07B6881
:1004D400114A934206D10C4B1B6B0B4A23F01003B9
:1004E400136309E07B680D4A934205D1064B1B6BED
:1004F400054A23F08003136300BF0C37BD465DF843
:10050400047B7047000002400038024000040240AF
:1005140000080240000C024000100240001C02408F
:1005240080B586B000AF786000237B617B681B6870
:1005340001211846FFF754FF7B685B79032B22D80F
:100544007B685B791A467B681B795B0002FA03F3CC
:100554007B617B681B681A687B681B795B000321DD
:1005640001FA03F3DB4319467B681B680A401A60EF
:100574007B681B6819687B681B687A690A431A6080
:1005840000237B61CAE07B685B79042B17D1434B62
:10059400DB687A681279114601228A4011463F4A83
:1005A4000B43D3603D4B9B687A6812791146012254
:1005B4008A40D2431146394A0B40936035E07B6848
:1005C4005B79052B17D1354B9B687A6812791146F4
:1005D40001228A401146314A0B4393602F4BDB685A
:1005E4007A681279114601228A40D24311462B4A75
:1005F4000B40D36019E07B685B79062B15D1274B40
:100604009B687A681279114601228A401146234A6E
:100614000B439360214BDB687A68127911460122FF
:100624008A4011461D4A0B43D3601D4B5B6C1C4A28
:1006340043F4804353647B681B799B08FB747B6899
:100644001B7903F00303BB747B681B68154A934250
:1006540034D07B681B68144A93421DD07B681B68A6
:10066400124A934216D07B681B68114A93420FD0FA
:100674007B681B680F4A934208D07B681B680E4A4C
:10068400934201D107231AE0002318E0042316E063
:10069400032314E0022312E0012310E0003C014094
:1006A40000380240000002400004024000080240FA
:1006B400000C024000100240001C024000237B7426
:1006C400664AFB7C023352F82320BB7C9B000F213B
:1006D40001FA03F3DB4318466049FB7C0240023312
:1006E40041F823205D4AFB7C023352F82320797CB5
:1006F400BB7C9B0001FA03F318465849FB7C024378
:10070400023341F82320564B1B687A68127911464C
:1007140001228A401146524A0B43136000237B6135
:100724007B689B791A467B681B795B0002FA03F3AA
:100734007B617B681B689A687B681B795B0003217B
:1007440001FA03F3DB4319467B681B680A409A608D
:100754007B681B6899687B681B687A690A439A609E
:1007640000237B617B68DB791A467B681B795B001D
:1007740002FA03F37B617B681B68DA687B681B7988
:100784005B00032101FA03F3DB4319467B681B6812
:100794000A40DA607B681B68D9687B681B687A69E1
:1007A4000A43DA6000237B617B681B7A1A467B6804
:1007B4001B7902FA03F37B617B681B685A687B68C8
:1007C4001B79194601238B40DB4319467B681B6860
:1007D4000A405A607B681B6859687B681B687A69A1
:1007E4000A435A6000237B617B685B79022B31D119
:1007F4007B681B79DB083B747B681B7903F0070378
:10080400FB737B681B683A7C083253F82210FB7B2D
:100814009B000F2202FA03F3DB4318467B681B6834
:100824003A7C0140083243F822107B681B683A7C0A
:10083400083253F822107B685B7A1A46FB7B9B00D4
:1008440002FA03F318467B681B683A7C01430832BA
:1008540043F8221000BF1837BD4680BD0038014060
:10086400003C014080B483B000AF78600B46FB705D
:100874007B685B69FA78012101FA02F25A407B68CD
:100884005A6100BF0C37BD465DF8047B7047000019
:1008940080B485B000AF234B9B689B08DBB203F0A8
:1008A40003037B727B7A002B02D11F4BFB6004E0B5
:1008B4007B7A012B01D11D4BFB601A4B9B681B09F2
:1008C400DBB203F00F033B723B7A072B02D8012300
:1008D400FB7205E03B7A083B154A32F81330FB7291
:1008E400104B9B689B0ADBB203F007033B723B7A15
:1008F400032B02D80123BB7205E03B7A043B0D4A6B
:1009040032F81330BB72FB7AFA68B2FBF3F2BB7AAB
:10091400B2FBF3F37B607B6818461437BD465DF881
:10092400047B7047003802400024F40000127A006F
:10093400200000203000002080B483B000AF786035
:100944000B46FB70FB78012B06D17B681B6843F4D4
:1009540080627B681A6005E07B681B6823F4806210
:100964007B681A6000BF0C37BD465DF8047B704796
:1009740080B483B000AF78607B681B6843F4007276
:100984007B681A6000BF0C37BD465DF8047B704776
:1009940080B584B000AF0C4B7B6005233B72012310
:1009A4007B720223BB7200233B730023FB723B1D4B
:1009B4001846FFF7B5FD05210348FFF753FF00BFB5
:1009C4001037BD4680BD00BF0008024080B483B02C
:1009D40000AF78600B46FB70FB78012B20D17B685D
:1009E400224A934206D1224B1B6C214A43F4001342
:1009F400136435E07B681F4A934206D11C4B1B6C81
:100A04001B4A43F4800313642AE07B681A4A934226
:100A140026D1174B1B6C164A43F4000313641FE0E2
:100A24007B68124A934206D1114B1B6C104A23F483
:100A34000013136414E07B680E4A934206D10C4BF6
:100A44001B6C0B4A23F48003136409E07B680A4A95
:100A5400934205D1064B1B6C054A23F4000313642F
:100A640000BF0C37BD465DF8047B7047005400405E
:100A74000038024000580040005C004080B483B05D
:100A840000AF78600B46FB70FB78012B06D17B68C6
:100A94001B6843F001027B681A6005E07B681B68F1
:100AA40023F001027B681A6000BF0C37BD465DF875
:100AB400047B704780B584B000AF78600023FB608E
:100AC4007B681B6801211846FFF780FF7B685B7A0F
:100AD4009B021A46FB681343FB607B681B6819681A
:100AE4007B681B68FA680A431A600023FB60FFF7FF
:100AF400CFFE02464D4BA3FB02239B0CFA68134323
:100B0400FB607B681B685968FB6803F03F027B68E5
:100B14001B680A435A600023FB607B681B7A5B00F6
:100B24001A46FB681343FB60FB6843F48043FB6095
:100B34007B681B6899687B681B68FA680A439A603B
:100B440000237B810023FB607B685B68384A934207
:100B54000FD8FFF79DFE02467B685B685B00B2FB23
:100B6400F3F37B817B89C3F30B03FA681343FB60C4
:100B74002DE0FB6843F40043FB607B689B7A9B0396
:100B84001A46FB681343FB607B689B7A002B0BD1EE
:100B9400FFF77EFE01467B685A6813465B001344E8
:100BA400B1FBF3F37B810CE0FFF772FE01467B6837
:100BB4005A6813469B0013449A001344B1FBF3F3A1
:100BC4007B817B89C3F30B03FA681343FB607B6867
:100BD4001B68D9697B681B68FA680A43DA617B6819
:100BE4005B68134A934209D8FFF752FE02460F4B43
:100BF400A3FB02239B0C0133FB600DE0FFF748FECF
:100C040002464FF4967303FB02F35B0A094AA2FB04
:100C14000323DB090133FB607B681B68FA6802F07D
:100C24003F021A6200BF1037BD4680BD83DE1B43FE
:100C3400A0860100834B040080B582B000AF7860C9
:100C44007B681B685A687B681B6822F480625A6060
:100C54007B681B685A687B681B6822F400725A60C0
:100C64007B6800221A777B6800221A617B68002265
:100C74009A617B6800221A627B685B7A012B05D13A
:100C84007B681B6801211846FFF756FE00BF083732
:100C9400BD4680BD80B483B000AF78607B681B68BC
:100CA4005A687B681B6822F480625A607B681B6800
:100CB4005A687B681B6822F400725A607B680022C1
:100CC4001A777B680022DA607B6800225A6100BFD1
:100CD4000C37BD465DF8047B704780B483B000AF29
:100CE40078600B46FB70FA787B681A6100BF0C379A
:100CF400BD465DF8047B704780B483B000AF786074
:100D04007B681B69DBB218460C37BD465DF8047B73
:100D1400704780B483B000AF78600B46FB70FB78FB
:100D2400012B12D17B685B6843F400727B685A60C4
:100D34007B685B6843F480627B685A607B685B68AD
:100D440043F480727B685A6011E07B685B6823F42B
:100D540000727B685A607B685B6823F480627B68FE
:100D64005A607B685B6823F480727B685A6000BFBA
:100D74000C37BD465DF8047B704780B586B000AF84
:100D84007860FFF705FE7B681B685B6803F40073FB
:100D94007B617B681B685B6803F480633B617B68F1
:100DA4001B685B6903F00103FB607B69002B1BD0AC
:100DB400FB68002B18D07B681B7F022B08D17B6853
:100DC4001A687B685B7F1946104600F0C3F90BE094
:100DD4007B681B7F012B07D17B681A687B685B7F6C
:100DE4001946104600F0CCF97B681B685B6903F078
:100DF4000203FB607B69002B05D0FB68002B02D04B
:100E0400786800F0D3F97B681B685B6903F004031E
:100E1400FB607B69002B22D0FB68002B1FD07B6812
:100E24001B7F022B1BD17B681B685B6903F080036B
:100E3400002B14D07B685B69002B10D17B6893F87E
:100E44002430002B04D17B681B681846FFF790FD03
:100E54007868FFF71FFF00217868FFF74BFA7B687B
:100E64001B685B6903F01003FB607B69002B0CD0EB
:100E7400FB68002B09D07B681A687B681B681268C2
:100E84001A6002217868FFF735FA7B681B685B6992
:100E940003F08003FB607B69002B1FD03B69002BB0
:100EA4001CD0FB68002B19D07B681B689B6903F07E
:100EB4000103002B07D07B681B7F022B0ED17868BF
:100EC40000F0ABF90AE07B681B689B6903F004033C
:100ED400002B03D008217868FFF70CFA7B681B68A5
:100EE4005B6903F04003FB607B69002B1FD03B6907
:100EF400002B1CD0FB68002B19D07B681B689B69F6
:100F040003F00103002B07D07B681B7F012B0ED15C
:100F1400786800F0A0F90AE07B681B689B6903F01D
:100F24000403002B03D109217868FFF7E3F900BF1C
:100F34001837BD4680BD80B584B000AF7860FFF738
:100F440027FD7B681B685B6803F48073FB607B6828
:100F54001B685B6903F48073BB60BB68002B0ED015
:100F6400FB68002B0BD07B681B685A697B681B6885
:100F740022F480725A6103217868FFF7BBF97B6819
:100F84001B685B6903F40073BB60BB68002B0ED065
:100F9400FB68002B0BD07B681B685A697B681B6855
:100FA40022F400725A6104217868FFF7A3F97B6880
:100FB4001B685B6903F48063BB60BB68002B0ED0C5
:100FC400FB68002B0BD07B681B685A697B681B6825
:100FD40022F480625A6105217868FFF78BF97B68F7
:100FE4001B685B6903F40063BB60BB68002B0ED015
:100FF400FB68002B0BD07B681B685A697B681B68F5
:1010040022F400625A6106217868FFF773F97B685D
:101014001B685B6903F48043BB60BB68002B0ED084
:10102400FB68002B0BD07B681B685A697B681B68C4
:1010340022F480425A6107217868FFF75BF900BF08
:101044001037BD4680BD000080B483B000AF0346B6
:101054000A46FB711346BB71BB79012B33D1FB7973
:101064001F2B0AD8354B1B68FA79012101FA02F2C9
:101074001146324A0B43136059E0FB791F2B0FD9F9
:10108400FB793F2B0CD82E4B1B68FA7902F01F0218
:10109400012101FA02F21146294A0B43136046E08A
:1010A400FB793F2B43D9FB795F2B40D8254B1B6839
:1010B400FA7902F03F02012101FA02F21146214AB3
:1010C4000B43136033E0FB791F2B0AD81E4B1B68BC
:1010D400FA79012101FA02F211461B4A0B4313600B
:1010E40025E0FB791F2B0FD9FB793F2B0CD8174B2D
:1010F4001B68FA7902F01F02012101FA02F211467B
:10110400124A0B43136012E0FB793F2B0FD9FB7992
:101114005F2B0CD80E4B1B68FA7902F03F020121B9
:1011240001FA02F211460A4A0B431360FFE700BFBB
:101134000C37BD465DF8047B704700BF00E100E05A
:1011440004E100E008E100E080E100E084E100E087
:1011540088E100E080B483B000AF78600B46FB7098
:10116400FB785B00FB70FB7823F00103FB70FA78DB
:101174007B681A6100BF0C37BD465DF8047B70477D
:1011840080B483B000AF78600B46FB70FB785B00E3
:10119400FB70FB7843F00103FB70FA787B681A61FB
:1011A40000BF0C37BD465DF8047B704780B584B042
:1011B40000AF78607B681B689B6903F00103002B18
:1011C4001FD07B681B7F012B12D17B681B6A012B0C
:1011D4001FD17B681B6800211846FFF7ADFB7B68B5
:1011E4001B685B69FB607B681B689B69FB6010E0A4
:1011F4007B681B685B69FB607B681B689B69FB60A1
:1012040007E07B681B685B69FB607B681B689B6904
:10121400FB6000BF1037BD4680BD80B483B000AF13
:1012240078607B685B69002B0FD07B68DB681A7879
:101234007B681B681A617B685B695A1E7B685A610C
:101244007B68DB685A1C7B68DA6000BF0C37BD46DC
:101254005DF8047B704780B582B000AF78607B682E
:101264001B6A012B0BD17B681B681A697B681B699D
:10127400D2B21A707B689B695A1E7B689A617B683C
:101284001B6A012B1AD97B689B69022B05D17B68E9
:101294001B6800211846FFF74FFB7B681B681A691F
:1012A4007B681B69D2B21A707B681B695A1C7B6805
:1012B4001A617B689B695A1E7B689A617B689B698B
:1012C400002B10D17B6893F82430002B04D17B6869
:1012D4001B681846FFF74CFB7868FFF7ADFC01214B
:1012E4007868FFF707F800BF0837BD4680BD0000E7
:1012F40070B50D4E0D4CA41BA4100025A54209D1B8
:101304000B4E0C4C00F018F8A41BA4100025A542A9
:1013140005D170BD56F8253098470135EEE756F8EB
:10132400253098470135F2E7541300085413000898
:101334005413000858130008F8B500BFF8BC08BCE3
:101344009E467047F8B500BFF8BC08BC9E4670477F
:04135400B9010008D3
:0413580095010008F3
:10135C0053544D333220536C617665206D6F646548
:10136C002074657374696E672E2E000000000000F7
:10137C000200040008001000400080000001000280
:08138C0002000400080010003B
:04000005080003915B
:00000001FF
