:020000040800F2
:10000000008001202102000871020008710200082E
:10001000710200087102000871020008000000006F
:100020000000000000000000000000007102000855
:10003000710200080000000071020008710200084F
:10004000000000007102000871020008710200083F
:1000500071020008710200087102000871020008B4
:10006000710200087102000871020008000000001F
:100070000000000000000000000000000000000080
:1000800000000000000000007102000800000000F5
:1000900000000000000000000000000071020008E5
:1000A0007102000871020008710200087102000864
:1000B00071020008710200080000000071020008CF
:1000C0007102000871020008710200087102000844
:1000D00071020008000000000000000000000000A5
:1000E000710200087102000871020008000000009F
:1000F0000000000000000000000000000000000000
:1001000000000000710200080000000071020008F9
:1001100000000000000000000000000000000000DF
:1001200000000000000000000000000000000000CF
:1001300000000000000000000000000000000000BF
:100140000000000000000000000000007102000834
:10015000000000000000000000000000000000009F
:100160007102000871020008000000000000000099
:10017000000000000000000000000000000000007F
:1001800000000000710200080000000000000000F4
:0401900071020008F0
:1001940010B5054C237833B9044B13B10448AFF3BD
:1001A40000800123237010BD000000200000000027
:1001B4009805000808B5034B1BB103490348AFF386
:1001C400008008BD0000000004000020980500081D
:1001D40080B584B000AF0F4BFB60FB689B6823F4D1
:1001E400C002FB689A60FB689B6843F0E062FB68AE
:1001F4009A60094B3B6008233B710023FB71002389
:100204007B720121044800F033F83B46184600F0A5
:10021400CFF8FEE700380240000002400D48854652
:100224000D480E490E4A002302E0D458C45004334A
:10023400C4188C42F9D30B4A0B4C002301E0136021
:100244000432A242FBD3AFF3008000F07FF9FFF742
:10025400BFFFFEE700800120000000200000002016
:10026400B8050008000000201C000020FEE7000084
:1002740080B483B000AF78600B46FB70FB78012B31
:1002840041D17B68434A934206D1434B1B6B424A9C
:1002940043F00103136377E07B68404A934206D13D
:1002A4003D4B1B6B3C4A43F0020313636CE07B68D9
:1002B4003B4A934206D1384B1B6B374A43F0040345
:1002C400136361E07B68374A934206D1324B1B6B60
:1002D400314A43F00803136356E07B68324A934281
:1002E40006D12D4B1B6B2C4A43F0100313634BE0D8
:1002F4007B682E4A934247D1274B1B6B264A43F017
:100304008003136340E07B68224A934206D1224B68
:100314001B6B214A23F00103136335E07B681F4AFA
:10032400934206D11C4B1B6B1B4A23F0020313633D
:100334002AE07B681A4A934206D1174B1B6B164A74
:1003440023F0040313631FE07B68164A934206D12B
:10035400114B1B6B104A23F00803136314E07B68F2
:10036400114A934206D10C4B1B6B0B4A23F010032A
:10037400136309E07B680D4A934205D1064B1B6B5E
:10038400054A23F08003136300BF0C37BD465DF8B4
:10039400047B704700000240003802400004024021
:1003A40000080240000C024000100240001C024001
:1003B40080B485B000AF78600023FB607B685B7914
:1003C400032B21D87B685B791A467B681B795B0019
:1003D40002FA03F3FB607B681B681A687B681B796D
:1003E4005B00032101FA03F3DB4319467B681B68B6
:1003F4000A401A607B681B6819687B681B68FA6886
:100404000A431A600023FB600023FB607B689B792E
:100414001A467B681B795B0002FA03F3FB607B6876
:100424001B689A687B681B795B00032101FA03F35C
:10043400DB4319467B681B680A409A607B681B682B
:1004440099687B681B68FA680A439A600023FB601A
:100454007B68DB791A467B681B795B0002FA03F33D
:10046400FB607B681B68DA687B681B795B0003218F
:1004740001FA03F3DB4319467B681B680A40DA6020
:100484007B681B68D9687B681B68FA680A43DA6072
:100494000023FB607B681B7A1A467B681B7902FA8F
:1004A40003F3FB607B681B685A687B681B791946F9
:1004B40001238B40DB4319467B681B680A405A6062
:1004C4007B681B6859687B681B68FA680A435A6032
:1004D4000023FB607B685B79022B31D17B681B793D
:1004E400DB08FB727B681B7903F00703BB727B6834
:1004F4001B68FA7A083253F82210BB7A9B000F2249
:1005040002FA03F3DB4318467B681B68FA7A01405E
:10051400083243F822107B681B68FA7A083253F8D1
:1005240022107B685B7A1A46BB7A9B0002FA03F3BB
:1005340018467B681B68FA7A0143083243F8221094
:1005440000BF1437BD465DF8047B704770B50D4E8F
:100554000D4CA41BA4100025A54209D10B4E0C4C34
:1005640000F018F8A41BA4100025A54205D170BD05
:1005740056F8253098470135EEE756F82530984768
:100584000135F2E7B0050008B0050008B005000821
:10059400B4050008F8B500BFF8BC08BC9E46704717
:0C05A400F8B500BFF8BC08BC9E467047CC
:0405B000B901000885
:0405B40095010008A5
:0400000508000221CC
:00000001FF
