:020000040800F2
:100000000080012029030008790300087903000813
:100010007903000879030008790300080000000054
:10002000000000000000000000000000790300084C
:100030007903000800000000790300087903000834
:100040000000000079030008790300087903000824
:100050007903000879030008790300087903000890
:100060007903000879030008790300080000000004
:100070000000000000000000000000000000000080
:1000800000000000000000007903000800000000EC
:1000900000000000000000000000000079030008DC
:1000A0007903000879030008790300087903000840
:1000B00079030008790300080000000079030008B4
:1000C0007903000879030008790300087903000820
:1000D000790300080000000000000000000000009C
:1000E0007903000879030008790300080000000084
:1000F0000000000000000000000000000000000000
:1001000000000000790300080000000079030008E7
:1001100000000000000000000000000000000000DF
:1001200000000000000000000000000000000000CF
:1001300000000000000000000000000000000000BF
:10014000000000000000000000000000790300082B
:10015000000000000000000000000000000000009F
:100160007903000879030008000000000000000087
:10017000000000000000000000000000000000007F
:1001800000000000790300080000000000000000EB
:0401900079030008E7
:1001940010B5054C237833B9044B13B10448AFF3BD
:1001A40000800123237010BD3800002000000000EF
:1001B400980C000808B5034B1BB103490348AFF37F
:1001C400008008BD000000003C000020980C0008DE
:1001D400034613F8012B002AFBD1181A0138704783
:1001E40080B483B000AF00237B6002E07B680133FE
:1001F4007B607B68044A9342F8D900BF0C37BD4644
:100204005DF8047B704700BF8FD0030080B586B0D3
:1002140000AF144BFB6002237B7401233B75012365
:10022400FB7404237B750223BB7408233B7407F11E
:100234000C03184600F040F90B4B3B6002237B7122
:1002440001233B720123FB7109237B720223BB71DF
:1002540004233B713B46184600F02EF900BF1837C3
:10026400BD4680BD000002400004024080B500AFDE
:10027400094B0A4A1A60084B01225A72064B612242
:100284001A72054B00229A72034B054A5A600248BF
:1002940000F0DAFB00BF80BD54000020005C004089
:1002A400A086010080B584B000AF094B7B600423B5
:1002B4003B7200237B720223BB720023FB723B1D43
:1002C400184600F0F9F800BF1037BD4680BD00BFE6
:1002D4000008024080B500AFFFF7E4FFFFF796FF88
:1002E400FFF7C4FF01210B4800F092FB00BF04217B
:1002F400094800F083FA0346002BF8D1FFF770FF9A
:100304000648FFF765FF024668230449044800F0E5
:100314003DFCEBE7005C00400008024000000020C8
:10032400540000200D4885460D480E490E4A00230E
:1003340002E0D458C4500433C4188C42F9D30B4A95
:100344000B4C002301E013600432A242FBD3AFF351
:10035400008000F07BFCFFF7BDFFFEE7008001207A
:100364000000002038000020B80C000838000020ED
:100374007C000020FEE7000080B483B000AF78600A
:100384000B46FB70FB78012B41D17B68434A9342B7
:1003940006D1434B1B6B424A43F00103136377E0DE
:1003A4007B68404A934206D13D4B1B6B3C4A43F069
:1003B400020313636CE07B683B4A934206D1384BDB
:1003C4001B6B374A43F00403136361E07B68374ACD
:1003D400934206D1324B1B6B314A43F0080313633B
:1003E40056E07B68324A934206D12D4B1B6B2C4A54
:1003F40043F0100313634BE07B682E4A934247D1CA
:10040400274B1B6B264A43F08003136340E07B6851
:10041400224A934206D1224B1B6B214A23F001034B
:10042400136335E07B681F4A934206D11C4B1B6B58
:100434001B4A23F0020313632AE07B681A4A93429F
:1004440006D1174B1B6B164A23F0040313631FE0FA
:100454007B68164A934206D1114B1B6B104A23F05A
:100464000803136314E07B68114A934206D10C4BD2
:100474001B6B0B4A23F01003136309E07B680D4ADE
:10048400934205D1064B1B6B054A23F0800313638B
:1004940000BF0C37BD465DF8047B70470000024086
:1004A400003802400004024000080240000C0240F0
:1004B40000100240001C024080B586B000AF786096
:1004C40000237B617B681B6801211846FFF754FFFA
:1004D4007B685B79032B22D87B685B791A467B683F
:1004E4001B795B0002FA03F37B617B681B681A6863
:1004F4007B681B795B00032101FA03F3DB43194694
:100504007B681B680A401A607B681B6819687B68F3
:100514001B687A690A431A6000237B61CAE07B681E
:100524005B79042B17D1434BDB687A681279114647
:1005340001228A4011463F4A0B43D3603D4B9B68DE
:100544007A681279114601228A40D2431146394A07
:100554000B40936035E07B685B79052B17D1354BF5
:100564009B687A681279114601228A401146314A01
:100574000B4393602F4BDB687A6812791146012292
:100584008A40D24311462B4A0B40D36019E07B6862
:100594005B79062B15D1274B9B687A681279114633
:1005A40001228A401146234A0B439360214BDB68A6
:1005B4007A681279114601228A4011461D4A0B437A
:1005C400D3601D4B5B6C1C4A43F4804353647B68CB
:1005D4001B799B08FB747B681B7903F00303BB74D2
:1005E4007B681B68154A934234D07B681B68144AA5
:1005F40093421DD07B681B68124A934216D07B68D5
:100604001B68114A93420FD07B681B680F4A9342C0
:1006140008D07B681B680E4A934201D107231AE075
:10062400002318E0042316E0032314E0022312E05D
:10063400012310E0003C0140003802400000024069
:100644000004024000080240000C02400010024076
:10065400001C024000237B74664AFB7C023352F880
:100664002320BB7C9B000F2101FA03F3DB431846D4
:100674006049FB7C0240023341F823205D4AFB7C45
:10068400023352F82320797CBB7C9B0001FA03F3EC
:1006940018465849FB7C0243023341F82320564B49
:1006A4001B687A681279114601228A401146524A1F
:1006B4000B43136000237B617B689B791A467B683C
:1006C4001B795B0002FA03F37B617B681B689A6801
:1006D4007B681B795B00032101FA03F3DB431946B2
:1006E4007B681B680A409A607B681B6899687B6812
:1006F4001B687A690A439A6000237B617B68DB7913
:100704001A467B681B795B0002FA03F37B617B6802
:100714001B68DA687B681B795B00032101FA03F329
:10072400DB4319467B681B680A40DA607B681B68F8
:10073400D9687B681B687A690A43DA6000237B61A5
:100744007B681B7A1A467B681B7902FA03F37B6188
:100754007B681B685A687B681B79194601238B40A8
:10076400DB4319467B681B680A405A607B681B6838
:1007740059687B681B687A690A435A6000237B6165
:100784007B685B79022B31D17B681B79DB083B7476
:100794007B681B7903F00703FB737B681B683A7C57
:1007A400083253F82210FB7B9B000F2202FA03F35A
:1007B400DB4318467B681B683A7C0140083243F8E7
:1007C40022107B681B683A7C083253F822107B683D
:1007D4005B7A1A46FB7B9B0002FA03F318467B689C
:1007E4001B683A7C0143083243F8221000BF1837D3
:1007F400BD4680BD00380140003C014080B485B056
:1008040000AF78600B46FB707B681A69FB7822FAAC
:1008140003F3DBB203F00103FB73FB7B18461437CD
:10082400BD465DF8047B704780B483B000AF786048
:100834007B681B6843F480727B681A6000BF0C37C6
:10084400BD465DF8047B704780B483B000AF786028
:100854000B46FB70FB785B00FB70FB7823F0010315
:10086400FB70FA787B681A6100BF0C37BD465DF8EF
:10087400047B704780B485B000AF78607B681B68E8
:100884005B69FB607B681B689B69FB6000BF143776
:10089400BD465DF8047B704780B483B000AF7860D8
:1008A4007B681B6843F400727B681A6000BF0C37D6
:1008B400BD465DF8047B704780B485B000AF234B20
:1008C4009B689B08DBB203F003037B727B7A002BEB
:1008D40002D11F4BFB6004E07B7A012B01D11D4B3D
:1008E400FB601A4B9B681B09DBB203F00F033B72DE
:1008F4003B7A072B02D80123FB7205E03B7A083BC5
:10090400154A32F81330FB72104B9B689B0ADBB21A
:1009140003F007033B723B7A032B02D80123BB721B
:1009240005E03B7A043B0D4A32F81330BB72FB7A84
:10093400FA68B2FBF3F2BB7AB2FBF3F37B607B6839
:1009440018461437BD465DF8047B704700380240F2
:100954000024F40000127A0020000020300000205F
:1009640080B483B000AF78600B46FB70FB78012B3A
:1009740020D17B68224A934206D1224B1B6C214A28
:1009840043F40013136435E07B681F4A934206D195
:100994001C4B1B6C1B4A43F4800313642AE07B68E2
:1009A4001A4A934226D1174B1B6C164A43F4000390
:1009B40013641FE07B68124A934206D1114B1B6CEF
:1009C400104A23F40013136414E07B680E4A934224
:1009D40006D10C4B1B6C0B4A23F48003136409E00F
:1009E4007B680A4A934205D1064B1B6C054A23F4E3
:1009F4000003136400BF0C37BD465DF8047B7047E9
:100A0400005400400038024000580040005C0040A0
:100A140080B483B000AF78600B46FB70FB78012B89
:100A240006D17B681B6843F001027B681A6005E00D
:100A34007B681B6823F001027B681A6000BF0C37D7
:100A4400BD465DF8047B704780B584B000AF786024
:100A54000023BB607B681B6801211846FFF780FFF9
:100A64007B685B7A9B021A46BB681343BB607B6856
:100A74001B68BA681A600023BB60FFF71DFF0246BB
:100A8400364BA3FB02239B0CBA681343BB607B6801
:100A94001B68BA6802F03F025A600023BB607B689F
:100AA4001B7A5B001A46BB681343BB60BB6843F404
:100AB4008043BB607B681B68BA689A600023FB8133
:100AC4000023BB607B685B68254A934213D8BB68EC
:100AD40023F40043BB60FFF7EFFE02467B685B68CC
:100AE4005B00B2FBF3F3FB81FB89C3F30B03BA682E
:100AF4001343BB602DE0BB6843F40043BB607B68D9
:100B04009B7A9B031A46BB681343BB607B689B7A42
:100B1400002B0BD1FFF7D0FE01467B685A681346C1
:100B24005B001344B1FBF3F3FB810CE0FFF7C4FE5D
:100B340001467B685A6813469B0013449A00134489
:100B4400B1FBF3F3FB81FB89C3F30B03BA681343D3
:100B5400BB6000BF1037BD4680BD00BF83DE1B43B2
:100B6400A086010080B483B000AF786039607B68F0
:100B74005A693B681340002B01D0012300E0002395
:100B840018460C37BD465DF8047B704780B584B0C9
:100B940000AFF860B9607A60FB70FB681B681846A8
:100BA400FFF742FE00BFFB681B6801211846FFF7F0
:100BB400D9FF0346002BF6D0FB681B68FA78114670
:100BC4001846FFF741FE00BFFB681B680221184668
:100BD400FFF7C8FF0346002BF6D0F868FFF74AFE7C
:100BE40014E000BFFB681B6880211846FFF7BAFFBA
:100BF4000346002BF6D0BB681A78FB681B681A61A1
:100C0400BB680133BB607B68013B7B607B68002B66
:100C1400E7D100BFFB681B6880211846FFF7A2FFDD
:100C24000346002BF6D000BFFB681B68042118465E
:100C3400FFF798FF0346002BF6D0FB681B681846A5
:100C4400FFF72AFE00BF1037BD4680BD70B50D4EBC
:100C54000D4CA41BA4100025A54209D10B4E0C4C2D
:100C640000F018F8A41BA4100025A54205D170BDFE
:100C740056F8253098470135EEE756F82530984761
:100C84000135F2E7B00C0008B00C0008B00C000805
:100C9400B40C0008F8B500BFF8BC08BC9E46704709
:0C0CA400F8B500BFF8BC08BC9E467047C5
:040CB000B90100087E
:040CB400950100089E
:100CB8005765206172652074657374696E67204991
:100CC8003243206D61737465722054780A00000005
:100CD800020004000800100040008000000100022B
:080CE8000200040008001000E6
:0400000508000329C3
:00000001FF
