:020000040800F2
:1000000000800120D5020008250300082503000810
:100010002503000825030008250300080000000050
:1000200000000000000000000000000025030008A0
:100030002503000800000000250300082503000830
:100040000000000025030008250300082503000820
:1000500025030008250300082503000825030008E0
:100060002503000825030008250300080000000000
:100070000000000000000000000000000000000080
:100080000000000000000000250300080000000040
:100090000000000000000000000000002503000830
:1000A0002503000825030008250300082503000890
:1000B00025030008250300080000000025030008B0
:1000C0002503000825030008250300082503000870
:1000D00025030008000000000000000000000000F0
:1000E0002503000825030008250300080000000080
:1000F0000000000000000000000000000000000000
:10010000000000002503000800000000250300088F
:1001100000000000000000000000000000000000DF
:1001200000000000000000000000000000000000CF
:1001300000000000000000000000000000000000BF
:10014000000000000000000000000000250300087F
:10015000000000000000000000000000000000009F
:10016000250300082503000800000000000000002F
:10017000000000000000000000000000000000007F
:10018000000000002503000800000000000000003F
:04019000250300083B
:1001940010B5054C237833B9044B13B10448AFF3BD
:1001A40000800123237010BD000000200000000027
:1001B400800A000808B5034B1BB103490348AFF399
:1001C400008008BD0000000004000020800A000830
:1001D400034613F8012B002AFBD1181A0138704783
:1001E40080B584B000AF104B7B6002237B72052383
:1001F4007B7300233B730023FB720223BB72012138
:10020400094800F08FF805233B723B1D184600F0A7
:1002140029F907233B723B1D184600F023F900BF60
:100224001037BD4680BD00BF0000024080B584B0D9
:1002340000AF0C4B7B6001237B7201233B720023D4
:10024400BB720023FB7200233B7300237B730123E7
:10025400BB733B1D184600F013FB00BF1037BD46AF
:1002640080BD00BF0030014080B584B000AF164AA5
:100274003B1D07CA83E807000121144800F090FAE7
:10028400FFF7AEFFFFF7D2FF0121104800F0B5FBE6
:1002940001210E4800F095FB3B1D1846FFF798FF1F
:1002A40002463B1D1946094800F055FB00BF80215A
:1002B400064800F03CFB0346002BF8D1002103481C
:1002C40000F07FFBE4E700BF980A0008003001401B
:1002D4000D4885460D480E490E4A002302E0D458C5
:1002E400C4500433C4188C42F9D30B4A0B4C00237A
:1002F40001E013600432A242FBD3AFF3008000F0AC
:1003040099FBFFF7B1FFFEE7008001200000002009
:1003140000000020AC0A0008000000201C0000209F
:10032400FEE7000080B483B000AF78600B46FB703A
:10033400FB78012B41D17B68434A934206D1434B5E
:100344001B6B424A43F00103136377E07B68404A26
:10035400934206D13D4B1B6B3C4A43F002031363AB
:100364006CE07B683B4A934206D1384B1B6B374A9F
:1003740043F00403136361E07B68374A934206D178
:10038400324B1B6B314A43F00803136356E07B681E
:10039400324A934206D12D4B1B6B2C4A43F0100377
:1003A40013634BE07B682E4A934247D1274B1B6B68
:1003B400264A43F08003136340E07B68224A934259
:1003C40006D1224B1B6B214A23F00103136335E052
:1003D4007B681F4A934206D11C4B1B6B1B4A23F0BC
:1003E400020313632AE07B681A4A934206D1174B2F
:1003F4001B6B164A23F0040313631FE07B68164A41
:10040400934206D1114B1B6B104A23F0080313636C
:1004140014E07B68114A934206D10C4B1B6B0B4AC8
:1004240023F01003136309E07B680D4A934205D15E
:10043400064B1B6B054A23F08003136300BF0C3784
:10044400BD465DF8047B704700000240003802405E
:100454000004024000080240000C02400010024068
:10046400001C024080B487B000AF786000237B6139
:100474007B685B79032B22D87B685B791A467B689F
:100484001B795B0002FA03F37B617B681B681A68C3
:100494007B681B795B00032101FA03F3DB431946F4
:1004A4007B681B680A401A607B681B6819687B6854
:1004B4001B687A690A431A6000237B61CAE07B687F
:1004C4005B79042B17D1434BDB687A6812791146A8
:1004D40001228A4011463F4A0B43D3603D4B9B683F
:1004E4007A681279114601228A40D2431146394A68
:1004F4000B40936035E07B685B79052B17D1354B56
:100504009B687A681279114601228A401146314A61
:100514000B4393602F4BDB687A68127911460122F2
:100524008A40D24311462B4A0B40D36019E07B68C2
:100534005B79062B15D1274B9B687A681279114693
:1005440001228A401146234A0B439360214BDB6806
:100554007A681279114601228A4011461D4A0B43DA
:10056400D3601D4B5B6C1C4A43F4804353647B682B
:100574001B799B08FB747B681B7903F00303BB7432
:100584007B681B68154A934234D07B681B68144A05
:1005940093421DD07B681B68124A934216D07B6835
:1005A4001B68114A93420FD07B681B680F4A934221
:1005B40008D07B681B680E4A934201D107231AE0D6
:1005C400002318E0042316E0032314E0022312E0BE
:1005D400012310E0003C01400038024000000240CA
:1005E4000004024000080240000C024000100240D7
:1005F400001C024000237B74674AFB7C023352F8E0
:100604002320BB7C9B000F2101FA03F3DB43184634
:100614006149FB7C0240023341F823205E4AFB7CA3
:10062400023352F82320797CBB7C9B0001FA03F34C
:1006340018465949FB7C0243023341F82320574BA7
:100644001B687A681279114601228A401146534A7E
:100654000B43136000237B617B689B791A467B689C
:100664001B795B0002FA03F37B617B681B689A6861
:100674007B681B795B00032101FA03F3DB43194612
:100684007B681B680A409A607B681B6899687B6872
:100694001B687A690A439A6000237B617B68DB7973
:1006A4001A467B681B795B0002FA03F37B617B6863
:1006B4001B68DA687B681B795B00032101FA03F38A
:1006C400DB4319467B681B680A40DA607B681B6859
:1006D400D9687B681B687A690A43DA6000237B6106
:1006E4007B681B7A1A467B681B7902FA03F37B61E9
:1006F4007B681B685A687B681B79194601238B4009
:10070400DB4319467B681B680A405A607B681B6898
:1007140059687B681B687A690A435A6000237B61C5
:100724007B685B79022B31D17B681B79DB083B74D6
:100734007B681B7903F00703FB737B681B683A7CB7
:10074400083253F82210FB7B9B000F2202FA03F3BA
:10075400DB4318467B681B683A7C0140083243F847
:1007640022107B681B683A7C083253F822107B689D
:100774005B7A1A46FB7B9B0002FA03F318467B68FC
:100784001B683A7C0143083243F8221000BF1C372F
:10079400BD465DF8047B704700380140003C0140D1
:1007A40080B483B000AF78600B46FB70FB78012BFC
:1007B4002BD17B682D4A934206D12D4B5B6C2C4A7E
:1007C40043F4805353644BE07B682A4A934206D136
:1007D400274B1B6C264A43F48043136440E07B6838
:1007E400254A934206D1224B1B6C214A43F4004311
:1007F400136435E07B68214A934231D11C4B5B6C16
:100804001B4A43F4005353642AE07B68174A93421B
:1008140006D1174B5B6C164A23F4805353641FE0D4
:100824007B68144A934206D1114B1B6C104A23F483
:100834008043136414E07B680F4A934206D10C4B47
:100844001B6C0B4A23F40043136409E07B680B4AD6
:10085400934205D1064B5B6C054A23F40053536461
:1008640000BF0C37BD465DF8047B70470030014083
:100874000038024000380040003C00400034014091
:1008840080B485B000AF78600023FB607B681B797F
:100894009B001A46FB681343FB607B685B79012B62
:1008A40004D1FB6823F40043FB6014E07B685B79AC
:1008B400022B04D1FB6843F40043FB600BE07B682C
:1008C4005B79032B07D1FB6823F40043FB60FB68CF
:1008D40043F48063FB607B689B79DB001A46FB680A
:1008E4001343FB607B68DB79DB021A46FB68134326
:1008F400FB607B681B7A5B001A46FB681343FB6052
:100904007B685B7A1A46FB681343FB607B689B7ABF
:100914005B021A46FB681343FB607B681B68FA683A
:100924001A6000BF1437BD465DF8047B704780B47D
:1009340083B000AF786039607B689A683B68134085
:10094400002B01D0012300E0002318460C37BD46DC
:100954005DF8047B704780B584B000AFF860B9607F
:100964007A6027E000BF0221F868FFF7E0FF034642
:10097400002BF8D0FB681B6803F40063002B0ED037
:10098400BB681B881A46FB68DA607B68013B7B60A6
:100994007B68013B7B60BB680133BB600AE0BB68DA
:1009A4001B781A46FB68DA607B68013B7B60BB6896
:1009B4000133BB607B68002BD4D100BF1037BD4628
:1009C40080BD80B483B000AF78600B46FB70FB78C9
:1009D400012B06D17B681B6843F040027B681A60D8
:1009E40005E07B681B6823F040027B681A6000BF47
:1009F4000C37BD465DF8047B704780B483B000AF0C
:100A040078600B46FB70FB78012B06D17B681B6872
:100A140043F480727B681A6005E07B681B6823F4EA
:100A240080727B681A6000BF0C37BD465DF8047B9A
:100A34007047000070B50D4E0D4CA41BA41000258A
:100A4400A54209D10B4E0C4C00F018F8A41BA410BD
:100A54000025A54205D170BD56F8253098470135CB
:100A6400EEE756F8253098470135F2E7A40A000866
:100A7400A40A0008A40A0008A80A0008F8B500BFE0
:100A8400F8BC08BC9E467047F8B500BFF8BC08BC6B
:040A94009E467047C3
:0C0A980048656C6C6F20776F726C640016
:040AA400B90100088C
:040AA80095010008AC
:04000005080002D518
:00000001FF
